{
  "contractName": "BridgeSafe",
  "abi": [
    {
      "inputs": [],
      "payable": false,
      "stateMutability": "nonpayable",
      "type": "constructor"
    },
    {
      "payable": true,
      "stateMutability": "payable",
      "type": "fallback"
    },
    {
      "anonymous": false,
      "inputs": [
        {
          "indexed": false,
          "name": "_owner",
          "type": "address"
        }
      ],
      "name": "ContractCreation",
      "type": "event"
    },
    {
      "constant": false,
      "inputs": [
        {
          "name": "_addr",
          "type": "address"
        }
      ],
      "name": "transferOwnership",
      "outputs": [],
      "payable": false,
      "stateMutability": "nonpayable",
      "type": "function"
    }
  ],
  "bytecode": "0x608060405234801561001057600080fd5b50336000806101000a81548173ffffffffffffffffffffffffffffffffffffffff021916908373ffffffffffffffffffffffffffffffffffffffff1602179055507f4db17dd5e4732fb6da34a148104a592783ca119a1e7bb8829eba6cbadef0b51133604051808273ffffffffffffffffffffffffffffffffffffffff1673ffffffffffffffffffffffffffffffffffffffff16815260200191505060405180910390a1610150806100c36000396000f300608060405260043610610041576000357c0100000000000000000000000000000000000000000000000000000000900463ffffffff168063f2fde38b14610043575b005b34801561004f57600080fd5b50610084600480360381019080803573ffffffffffffffffffffffffffffffffffffffff169060200190929190505050610086565b005b3373ffffffffffffffffffffffffffffffffffffffff166000809054906101000a900473ffffffffffffffffffffffffffffffffffffffff1673ffffffffffffffffffffffffffffffffffffffff161415156100e157600080fd5b806000806101000a81548173ffffffffffffffffffffffffffffffffffffffff021916908373ffffffffffffffffffffffffffffffffffffffff160217905550505600a165627a7a723058207d3c3232b426163c95a4f7a84140580681a0cd877ba7574d47ef6c144fed4ed10029",
  "source": "pragma solidity ^0.4.23;\n\n/*\n* Bridge Safe Smart Contract\n* @noot\n* the bridge will have access to funds in this contract. this contract will\n* need to have balance so that the bridge can pay tx fees and broadcast transactions. \n*\n* this is not currently used.\n*/\n\ncontract BridgeSafe {\n\taddress owner;\n\tevent ContractCreation(address _owner);\n\n\tconstructor() public {\n\t\towner = msg.sender;\n\t\temit ContractCreation(msg.sender);\n\t}\n\n\tmodifier onlyOwner() {\n\t\trequire(owner == msg.sender);\n\t\t_;\n\t}\n\n\tfunction () public payable {\n\t\t// pay me\n\t}\n\n\tfunction transferOwnership(address _addr) public onlyOwner {\n\t\towner = _addr;\n\t}\n}",
  "sourcePath": "/home/elizabeth/go/src/github.com/ChainSafeSystems/multi_directional_bridge/truffle/contracts/BridgeSafe.sol",
  "compiler": {
    "name": "solc",
    "version": "0.4.24+commit.e67f0147.Emscripten.clang"
  },
  "schemaVersion": "2.0.0",
  "updatedAt": "2018-08-21T17:40:50.207Z"
}