{
  "contractName": "Bridge",
  "abi": [
    {
      "inputs": [],
      "payable": false,
      "stateMutability": "nonpayable",
      "type": "constructor"
    },
    {
      "payable": true,
      "stateMutability": "payable",
      "type": "fallback"
    },
    {
      "anonymous": false,
      "inputs": [
        {
          "indexed": false,
          "name": "_owner",
          "type": "address"
        }
      ],
      "name": "ContractCreation",
      "type": "event"
    },
    {
      "anonymous": false,
      "inputs": [
        {
          "indexed": false,
          "name": "_receiver",
          "type": "address"
        },
        {
          "indexed": false,
          "name": "_value",
          "type": "uint256"
        }
      ],
      "name": "Deposit",
      "type": "event"
    },
    {
      "anonymous": false,
      "inputs": [
        {
          "indexed": false,
          "name": "_receiver",
          "type": "address"
        },
        {
          "indexed": false,
          "name": "_value",
          "type": "uint256"
        }
      ],
      "name": "Withdraw",
      "type": "event"
    },
    {
      "anonymous": false,
      "inputs": [
        {
          "indexed": false,
          "name": "_to",
          "type": "address"
        },
        {
          "indexed": false,
          "name": "_value",
          "type": "uint256"
        }
      ],
      "name": "Transfer",
      "type": "event"
    },
    {
      "constant": false,
      "inputs": [
        {
          "name": "_receiver",
          "type": "address"
        },
        {
          "name": "_value",
          "type": "uint256"
        }
      ],
      "name": "withdraw",
      "outputs": [],
      "payable": false,
      "stateMutability": "nonpayable",
      "type": "function"
    },
    {
      "constant": false,
      "inputs": [
        {
          "name": "_to",
          "type": "address"
        },
        {
          "name": "_value",
          "type": "uint256"
        }
      ],
      "name": "transfer",
      "outputs": [
        {
          "name": "",
          "type": "bool"
        }
      ],
      "payable": false,
      "stateMutability": "nonpayable",
      "type": "function"
    }
  ],
  "bytecode": "0x608060405234801561001057600080fd5b507f4db17dd5e4732fb6da34a148104a592783ca119a1e7bb8829eba6cbadef0b51133604051808273ffffffffffffffffffffffffffffffffffffffff1673ffffffffffffffffffffffffffffffffffffffff16815260200191505060405180910390a16102c4806100836000396000f30060806040526004361061004c576000357c0100000000000000000000000000000000000000000000000000000000900463ffffffff168063a9059cbb146100b9578063f3fef3a31461011e575b7fe1fffcc4923d04b559f4d29a8bfc6cda04eb5b0d3c460751c2402c5c5cc9109c3334604051808373ffffffffffffffffffffffffffffffffffffffff1673ffffffffffffffffffffffffffffffffffffffff1681526020018281526020019250505060405180910390a1005b3480156100c557600080fd5b50610104600480360381019080803573ffffffffffffffffffffffffffffffffffffffff1690602001909291908035906020019092919050505061016b565b604051808215151515815260200191505060405180910390f35b34801561012a57600080fd5b50610169600480360381019080803573ffffffffffffffffffffffffffffffffffffffff169060200190929190803590602001909291905050506101e2565b005b60007f69ca02dd4edd7bf0a4abb9ed3b7af3f14778db5d61921c7dc7cd545266326de28383604051808373ffffffffffffffffffffffffffffffffffffffff1673ffffffffffffffffffffffffffffffffffffffff1681526020018281526020019250505060405180910390a16001905092915050565b7f884edad9ce6fa2440d8a54cc123490eb96d2768479d49ff9c7366125a94243648282604051808373ffffffffffffffffffffffffffffffffffffffff1673ffffffffffffffffffffffffffffffffffffffff1681526020018281526020019250505060405180910390a18173ffffffffffffffffffffffffffffffffffffffff166108fc829081150290604051600060405180830381858888f19350505050158015610293573d6000803e3d6000fd5b5050505600a165627a7a723058200068e443134eb0872e47c33c7a2c28bbc5f33ce923129039a0652e0909f9ecd50029",
  "source": "pragma solidity ^0.4.23;\n\n/* Bridge Smart Contract \n* @noot\n* this contract was created to be a generic bridge contract that will emit a Deposit() \n* event upon receiving ether. this Deposit() event will then be picked up by the bridge,\n* which acts as a client. the bridge will then submit a transaction to withdraw ether\n* on the other chain. when this withdraw is completed, a Withdraw() event will be emitted.\n* \n* this contract will be deployed on both sides of the bridge.\n*\n* @todo: ERC20/223 support\n* @todo: testing + security; merkle proofs; valiadators ning off on transactions for PoA \n* chains or private chains/bridges\n*/\n\ncontract Bridge {\n\tevent ContractCreation(address _owner);\n\n\t// currently, we only specify the receiving address on the other chain\n\t// and the value of the deposit.\n\t// @todo: add `address _toChain` so that the user can specify which\n\t// chain they wish to withdraw on. this makes the bridge \"multi-directional.\n\tevent Deposit(address _receiver, uint _value); \n\n\t// @todo: similarly to the Deposit event, we eventually wish to add\n\t// a `address _fromChain` argument\n\tevent Withdraw(address _receiver, uint _value); \n\n\tconstructor() public {\n\t\temit ContractCreation(msg.sender);\n\t}\n\n\t/* bridge functions */\n\tfunction () public payable {\n\t\temit Deposit(msg.sender, msg.value);\n\t}\n\n\tfunction withdraw(address _receiver, uint _value) public {\n\t\temit Withdraw(_receiver, _value);\n\t\t_receiver.transfer(_value);\n\t}\n\n\t/* erc20 functions */\n\tevent Transfer(address _to, uint _value);\n\n\tfunction transfer(address _to, uint _value) public returns (bool) {\n\t\temit Transfer(_to, _value);\n\t\treturn true;\n\t}\n}\n",
  "sourcePath": "/home/elizabeth/go/src/github.com/noot/multi_directional_bridge/truffle/contracts/Bridge.sol",
  "compiler": {
    "name": "solc",
    "version": "0.4.24+commit.e67f0147.Emscripten.clang"
  },
  "schemaVersion": "2.0.0",
  "updatedAt": "2018-07-17T20:12:15.167Z"
}