{
  "contractName": "Bridge",
  "abi": [
    {
      "constant": true,
      "inputs": [],
      "name": "owner",
      "outputs": [
        {
          "name": "",
          "type": "address"
        }
      ],
      "payable": false,
      "stateMutability": "view",
      "type": "function"
    },
    {
      "constant": true,
      "inputs": [],
      "name": "bridge",
      "outputs": [
        {
          "name": "",
          "type": "address"
        }
      ],
      "payable": false,
      "stateMutability": "view",
      "type": "function"
    },
    {
      "inputs": [],
      "payable": false,
      "stateMutability": "nonpayable",
      "type": "constructor"
    },
    {
      "payable": true,
      "stateMutability": "payable",
      "type": "fallback"
    },
    {
      "anonymous": false,
      "inputs": [
        {
          "indexed": false,
          "name": "_owner",
          "type": "address"
        }
      ],
      "name": "ContractCreation",
      "type": "event"
    },
    {
      "anonymous": false,
      "inputs": [
        {
          "indexed": false,
          "name": "_addr",
          "type": "address"
        }
      ],
      "name": "BridgeSet",
      "type": "event"
    },
    {
      "anonymous": false,
      "inputs": [
        {
          "indexed": false,
          "name": "_addr",
          "type": "address"
        }
      ],
      "name": "BridgeFunded",
      "type": "event"
    },
    {
      "anonymous": false,
      "inputs": [
        {
          "indexed": false,
          "name": "_addr",
          "type": "address"
        },
        {
          "indexed": false,
          "name": "_value",
          "type": "uint256"
        }
      ],
      "name": "Paid",
      "type": "event"
    },
    {
      "anonymous": false,
      "inputs": [
        {
          "indexed": false,
          "name": "_recipient",
          "type": "address"
        },
        {
          "indexed": false,
          "name": "_value",
          "type": "uint256"
        },
        {
          "indexed": false,
          "name": "_toChain",
          "type": "uint256"
        }
      ],
      "name": "Deposit",
      "type": "event"
    },
    {
      "anonymous": false,
      "inputs": [
        {
          "indexed": false,
          "name": "_recipient",
          "type": "address"
        },
        {
          "indexed": false,
          "name": "_value",
          "type": "uint256"
        },
        {
          "indexed": false,
          "name": "_fromChain",
          "type": "uint256"
        }
      ],
      "name": "Withdraw",
      "type": "event"
    },
    {
      "constant": false,
      "inputs": [],
      "name": "fundBridge",
      "outputs": [],
      "payable": true,
      "stateMutability": "payable",
      "type": "function"
    },
    {
      "constant": false,
      "inputs": [
        {
          "name": "_recipient",
          "type": "address"
        },
        {
          "name": "_toChain",
          "type": "uint256"
        }
      ],
      "name": "deposit",
      "outputs": [],
      "payable": true,
      "stateMutability": "payable",
      "type": "function"
    },
    {
      "constant": false,
      "inputs": [
        {
          "name": "_recipient",
          "type": "address"
        },
        {
          "name": "_toChain",
          "type": "uint256"
        },
        {
          "name": "_value",
          "type": "uint256"
        }
      ],
      "name": "withdrawTo",
      "outputs": [],
      "payable": false,
      "stateMutability": "nonpayable",
      "type": "function"
    },
    {
      "constant": false,
      "inputs": [
        {
          "name": "_addr",
          "type": "address"
        }
      ],
      "name": "setBridge",
      "outputs": [],
      "payable": false,
      "stateMutability": "nonpayable",
      "type": "function"
    },
    {
      "constant": false,
      "inputs": [
        {
          "name": "_recipient",
          "type": "address"
        },
        {
          "name": "_value",
          "type": "uint256"
        },
        {
          "name": "_fromChain",
          "type": "uint256"
        }
      ],
      "name": "withdraw",
      "outputs": [],
      "payable": false,
      "stateMutability": "nonpayable",
      "type": "function"
    }
  ],
  "bytecode": "0x608060405234801561001057600080fd5b50336000806101000a81548173ffffffffffffffffffffffffffffffffffffffff021916908373ffffffffffffffffffffffffffffffffffffffff16021790555033600160006101000a81548173ffffffffffffffffffffffffffffffffffffffff021916908373ffffffffffffffffffffffffffffffffffffffff1602179055507f4db17dd5e4732fb6da34a148104a592783ca119a1e7bb8829eba6cbadef0b51133604051808273ffffffffffffffffffffffffffffffffffffffff1673ffffffffffffffffffffffffffffffffffffffff16815260200191505060405180910390a16107cb806101046000396000f300608060405260043610610083576000357c0100000000000000000000000000000000000000000000000000000000900463ffffffff16806347e7ef241461013d5780635fcbc20e1461017d5780638da5cb5b146101d45780638dd148021461022b578063b5c5f6721461026e578063c9c0909f146102c5578063e78cea92146102cf575b34600260003373ffffffffffffffffffffffffffffffffffffffff1673ffffffffffffffffffffffffffffffffffffffff168152602001908152602001600020600082825401925050819055507f737c69225d647e5994eab1a6c301bf6d9232beb2759ae1e27a8966b4732bc4893334604051808373ffffffffffffffffffffffffffffffffffffffff1673ffffffffffffffffffffffffffffffffffffffff1681526020018281526020019250505060405180910390a1005b61017b600480360381019080803573ffffffffffffffffffffffffffffffffffffffff16906020019092919080359060200190929190505050610326565b005b34801561018957600080fd5b506101d2600480360381019080803573ffffffffffffffffffffffffffffffffffffffff169060200190929190803590602001909291908035906020019092919050505061039d565b005b3480156101e057600080fd5b506101e96104b0565b604051808273ffffffffffffffffffffffffffffffffffffffff1673ffffffffffffffffffffffffffffffffffffffff16815260200191505060405180910390f35b34801561023757600080fd5b5061026c600480360381019080803573ffffffffffffffffffffffffffffffffffffffff1690602001909291905050506104d5565b005b34801561027a57600080fd5b506102c3600480360381019080803573ffffffffffffffffffffffffffffffffffffffff16906020019092919080359060200190929190803590602001909291905050506105f9565b005b6102cd610714565b005b3480156102db57600080fd5b506102e4610779565b604051808273ffffffffffffffffffffffffffffffffffffffff1673ffffffffffffffffffffffffffffffffffffffff16815260200191505060405180910390f35b7f90890809c654f11d6e72a28fa60149770a0d11ec6c92319d6ceb2bb0a4ea1a15823483604051808473ffffffffffffffffffffffffffffffffffffffff1673ffffffffffffffffffffffffffffffffffffffff168152602001838152602001828152602001935050505060405180910390a15050565b80600260003373ffffffffffffffffffffffffffffffffffffffff1673ffffffffffffffffffffffffffffffffffffffff16815260200190815260200160002054101515156103eb57600080fd5b80600260003373ffffffffffffffffffffffffffffffffffffffff1673ffffffffffffffffffffffffffffffffffffffff168152602001908152602001600020600082825403925050819055507f90890809c654f11d6e72a28fa60149770a0d11ec6c92319d6ceb2bb0a4ea1a15838284604051808473ffffffffffffffffffffffffffffffffffffffff1673ffffffffffffffffffffffffffffffffffffffff168152602001838152602001828152602001935050505060405180910390a1505050565b6000809054906101000a900473ffffffffffffffffffffffffffffffffffffffff1681565b6000809054906101000a900473ffffffffffffffffffffffffffffffffffffffff1673ffffffffffffffffffffffffffffffffffffffff163373ffffffffffffffffffffffffffffffffffffffff1614151561053057600080fd5b80600160006101000a81548173ffffffffffffffffffffffffffffffffffffffff021916908373ffffffffffffffffffffffffffffffffffffffff1602179055507fa49730bff544fd0b716395c592e39c6fd2d2481a19b9229b5b240483db95a495600160009054906101000a900473ffffffffffffffffffffffffffffffffffffffff16604051808273ffffffffffffffffffffffffffffffffffffffff1673ffffffffffffffffffffffffffffffffffffffff16815260200191505060405180910390a150565b600160009054906101000a900473ffffffffffffffffffffffffffffffffffffffff1673ffffffffffffffffffffffffffffffffffffffff163373ffffffffffffffffffffffffffffffffffffffff1614151561065557600080fd5b8273ffffffffffffffffffffffffffffffffffffffff166108fc839081150290604051600060405180830381858888f1935050505015801561069b573d6000803e3d6000fd5b507ff279e6a1f5e320cca91135676d9cb6e44ca8a08c0b88342bcdb1144f6511b568838383604051808473ffffffffffffffffffffffffffffffffffffffff1673ffffffffffffffffffffffffffffffffffffffff168152602001838152602001828152602001935050505060405180910390a1505050565b7fc2520f24142cb24b12b04df358be485159ec7ec1a3c3ad25fa65e1a226e4eec333604051808273ffffffffffffffffffffffffffffffffffffffff1673ffffffffffffffffffffffffffffffffffffffff16815260200191505060405180910390a1565b600160009054906101000a900473ffffffffffffffffffffffffffffffffffffffff16815600a165627a7a72305820b9a51cfadacc175cc732a6e23934ee425d181f2b8a2197d67a23e95273bf80160029",
  "source": "pragma solidity ^0.4.23;\n\n/* Bridge Smart Contract \n* @noot\n* this contract was created to be a generic bridge contract that will emit a Deposit() \n* event upon receiving ether. this Deposit() event will then be picked up by the bridge,\n* which acts as a client. the bridge will then submit a transaction to withdraw ether\n* on the other chain. when this withdraw is completed, a Withdraw() event will be emitted.\n* \n* this contract will be deployed on both sides of the bridge.\n*\n* @todo: ERC20/223 support\n* @todo: testing + security; merkle proofs; valiadators ning off on transactions for PoA \n* chains or private chains/bridges\n*/\n\ncontract Bridge {\n\taddress public owner;\n\t// this is the public key address of the bridge's own keypair, not\n\t// the address of the BridgeSafe or any contract.\n\taddress public bridge;\n\n\tmapping(address => uint) balance;\n\n\tevent ContractCreation(address _owner);\n\tevent BridgeSet(address _addr);\n\tevent BridgeFunded(address _addr);\n\tevent Paid(address _addr, uint _value);\n\n\tevent Deposit(address _recipient, uint _value, uint _toChain); \n\tevent Withdraw(address _recipient, uint _value, uint _fromChain); \n\n\tconstructor() public {\n\t\towner = msg.sender;\n\t\tbridge = msg.sender;\n\t\temit ContractCreation(msg.sender);\n\t}\n\n\tmodifier onlyOwner() {\n\t\trequire(msg.sender == owner);\n\t\t_;\n\t}\n\n\tmodifier onlyBridge() {\n\t\trequire(msg.sender == bridge);\n\t\t_;\n\t}\n\n\t/* bridge functions */\n\tfunction () public payable {\n\t\t//revert();\n\t\tbalance[msg.sender] += msg.value;\n\t\temit Paid(msg.sender, msg.value);\n\t}\n\n\tfunction fundBridge() public payable {\n\t\t// thanks\n\t\temit BridgeFunded(msg.sender);\n\t}\n\n\tfunction deposit(address _recipient, uint _toChain) public payable {\n\t\temit Deposit(_recipient, msg.value, _toChain);\n\t}\n\n\tfunction withdrawTo(address _recipient, uint _toChain, uint _value) public {\n\t\trequire(balance[msg.sender] >= _value);\n\t\tbalance[msg.sender] -= _value;\n\t\temit Deposit(_recipient, _value, _toChain);\n\t}\n\n\tfunction setBridge(address _addr) public onlyOwner {\n\t\tbridge = _addr;\n\t\temit BridgeSet(bridge);\n\t}\n\n\tfunction withdraw(address _recipient, uint _value, uint _fromChain) public onlyBridge {\n\t\t_recipient.transfer(_value);\n\t\temit Withdraw(_recipient, _value, _fromChain);\n\t}\n}\n",
  "sourcePath": "/home/elizabeth/go/src/github.com/ChainSafeSystems/multi_directional_bridge/truffle/contracts/Bridge.sol",
  "compiler": {
    "name": "solc",
    "version": "0.4.24+commit.e67f0147.Emscripten.clang"
  },
  "schemaVersion": "2.0.0",
  "updatedAt": "2018-08-21T18:04:16.125Z"
}