{
  "contractName": "Bridge",
  "abi": [
    {
      "constant": true,
      "inputs": [],
      "name": "owner",
      "outputs": [
        {
          "name": "",
          "type": "address"
        }
      ],
      "payable": false,
      "stateMutability": "view",
      "type": "function"
    },
    {
      "constant": true,
      "inputs": [],
      "name": "bridge",
      "outputs": [
        {
          "name": "",
          "type": "address"
        }
      ],
      "payable": false,
      "stateMutability": "view",
      "type": "function"
    },
    {
      "inputs": [],
      "payable": false,
      "stateMutability": "nonpayable",
      "type": "constructor"
    },
    {
      "payable": true,
      "stateMutability": "payable",
      "type": "fallback"
    },
    {
      "anonymous": false,
      "inputs": [
        {
          "indexed": false,
          "name": "_owner",
          "type": "address"
        }
      ],
      "name": "ContractCreation",
      "type": "event"
    },
    {
      "anonymous": false,
      "inputs": [
        {
          "indexed": false,
          "name": "_receiver",
          "type": "address"
        },
        {
          "indexed": false,
          "name": "_value",
          "type": "uint256"
        },
        {
          "indexed": false,
          "name": "_toChain",
          "type": "uint256"
        }
      ],
      "name": "Deposit",
      "type": "event"
    },
    {
      "anonymous": false,
      "inputs": [
        {
          "indexed": false,
          "name": "_receiver",
          "type": "address"
        },
        {
          "indexed": false,
          "name": "_value",
          "type": "uint256"
        }
      ],
      "name": "DepositErc20",
      "type": "event"
    },
    {
      "anonymous": false,
      "inputs": [
        {
          "indexed": false,
          "name": "_receiver",
          "type": "address"
        },
        {
          "indexed": false,
          "name": "_value",
          "type": "uint256"
        },
        {
          "indexed": false,
          "name": "_fromChain",
          "type": "uint256"
        }
      ],
      "name": "Withdraw",
      "type": "event"
    },
    {
      "anonymous": false,
      "inputs": [
        {
          "indexed": false,
          "name": "_receiver",
          "type": "address"
        },
        {
          "indexed": false,
          "name": "_value",
          "type": "uint256"
        }
      ],
      "name": "WithdrawErc20",
      "type": "event"
    },
    {
      "anonymous": false,
      "inputs": [
        {
          "indexed": false,
          "name": "_to",
          "type": "address"
        },
        {
          "indexed": false,
          "name": "_value",
          "type": "uint256"
        }
      ],
      "name": "Transfer",
      "type": "event"
    },
    {
      "constant": false,
      "inputs": [
        {
          "name": "_toChain",
          "type": "uint256"
        }
      ],
      "name": "deposit",
      "outputs": [],
      "payable": true,
      "stateMutability": "payable",
      "type": "function"
    },
    {
      "constant": false,
      "inputs": [
        {
          "name": "_sender",
          "type": "address"
        },
        {
          "name": "_origin",
          "type": "address"
        },
        {
          "name": "_value",
          "type": "uint256"
        },
        {
          "name": "_data",
          "type": "bytes"
        }
      ],
      "name": "tokenFallback",
      "outputs": [
        {
          "name": "ok",
          "type": "bool"
        }
      ],
      "payable": false,
      "stateMutability": "nonpayable",
      "type": "function"
    },
    {
      "constant": false,
      "inputs": [
        {
          "name": "_addr",
          "type": "address"
        }
      ],
      "name": "setBridge",
      "outputs": [],
      "payable": false,
      "stateMutability": "nonpayable",
      "type": "function"
    },
    {
      "constant": false,
      "inputs": [
        {
          "name": "_receiver",
          "type": "address"
        },
        {
          "name": "_value",
          "type": "uint256"
        },
        {
          "name": "_fromChain",
          "type": "uint256"
        }
      ],
      "name": "withdraw",
      "outputs": [],
      "payable": false,
      "stateMutability": "nonpayable",
      "type": "function"
    },
    {
      "constant": false,
      "inputs": [
        {
          "name": "_receiver",
          "type": "address"
        },
        {
          "name": "_value",
          "type": "uint256"
        }
      ],
      "name": "withdrawErc20",
      "outputs": [],
      "payable": false,
      "stateMutability": "nonpayable",
      "type": "function"
    },
    {
      "constant": false,
      "inputs": [
        {
          "name": "_to",
          "type": "address"
        },
        {
          "name": "_value",
          "type": "uint256"
        }
      ],
      "name": "transfer",
      "outputs": [
        {
          "name": "",
          "type": "bool"
        }
      ],
      "payable": false,
      "stateMutability": "nonpayable",
      "type": "function"
    }
  ],
  "bytecode": "0x608060405234801561001057600080fd5b50336000806101000a81548173ffffffffffffffffffffffffffffffffffffffff021916908373ffffffffffffffffffffffffffffffffffffffff1602179055507f4db17dd5e4732fb6da34a148104a592783ca119a1e7bb8829eba6cbadef0b51133604051808273ffffffffffffffffffffffffffffffffffffffff1673ffffffffffffffffffffffffffffffffffffffff16815260200191505060405180910390a16108cd806100c36000396000f30060806040526004361061008e576000357c0100000000000000000000000000000000000000000000000000000000900463ffffffff1680634c123019146100935780638da5cb5b1461015e5780638dd14802146101b5578063a9059cbb146101f8578063b5c5f6721461025d578063b6b55f25146102b4578063bd1f4b52146102d4578063e78cea9214610321575b600080fd5b34801561009f57600080fd5b50610144600480360381019080803573ffffffffffffffffffffffffffffffffffffffff169060200190929190803573ffffffffffffffffffffffffffffffffffffffff16906020019092919080359060200190929190803590602001908201803590602001908080601f0160208091040260200160405190810160405280939291908181526020018383808284378201915050505050509192919290505050610378565b604051808215151515815260200191505060405180910390f35b34801561016a57600080fd5b506101736103f1565b604051808273ffffffffffffffffffffffffffffffffffffffff1673ffffffffffffffffffffffffffffffffffffffff16815260200191505060405180910390f35b3480156101c157600080fd5b506101f6600480360381019080803573ffffffffffffffffffffffffffffffffffffffff169060200190929190505050610416565b005b34801561020457600080fd5b50610243600480360381019080803573ffffffffffffffffffffffffffffffffffffffff169060200190929190803590602001909291905050506104b5565b604051808215151515815260200191505060405180910390f35b34801561026957600080fd5b506102b2600480360381019080803573ffffffffffffffffffffffffffffffffffffffff1690602001909291908035906020019092919080359060200190929190505050610614565b005b6102d26004803603810190808035906020019092919050505061072f565b005b3480156102e057600080fd5b5061031f600480360381019080803573ffffffffffffffffffffffffffffffffffffffff169060200190929190803590602001909291905050506107a5565b005b34801561032d57600080fd5b5061033661087b565b604051808273ffffffffffffffffffffffffffffffffffffffff1673ffffffffffffffffffffffffffffffffffffffff16815260200191505060405180910390f35b60007f7339d5d5492cc75a947030d248f62fb9da2da3280337ab2b47b28d877b3ef80f8484604051808373ffffffffffffffffffffffffffffffffffffffff1673ffffffffffffffffffffffffffffffffffffffff1681526020018281526020019250505060405180910390a160019050949350505050565b6000809054906101000a900473ffffffffffffffffffffffffffffffffffffffff1681565b6000809054906101000a900473ffffffffffffffffffffffffffffffffffffffff1673ffffffffffffffffffffffffffffffffffffffff163373ffffffffffffffffffffffffffffffffffffffff1614151561047157600080fd5b80600160006101000a81548173ffffffffffffffffffffffffffffffffffffffff021916908373ffffffffffffffffffffffffffffffffffffffff16021790555050565b600081600260003373ffffffffffffffffffffffffffffffffffffffff1673ffffffffffffffffffffffffffffffffffffffff168152602001908152602001600020541015151561050557600080fd5b81600260003373ffffffffffffffffffffffffffffffffffffffff1673ffffffffffffffffffffffffffffffffffffffff1681526020019081526020016000206000828254039250508190555081600260008573ffffffffffffffffffffffffffffffffffffffff1673ffffffffffffffffffffffffffffffffffffffff168152602001908152602001600020600082825401925050819055507f69ca02dd4edd7bf0a4abb9ed3b7af3f14778db5d61921c7dc7cd545266326de28383604051808373ffffffffffffffffffffffffffffffffffffffff1673ffffffffffffffffffffffffffffffffffffffff1681526020018281526020019250505060405180910390a16001905092915050565b600160009054906101000a900473ffffffffffffffffffffffffffffffffffffffff1673ffffffffffffffffffffffffffffffffffffffff163373ffffffffffffffffffffffffffffffffffffffff1614151561067057600080fd5b7ff279e6a1f5e320cca91135676d9cb6e44ca8a08c0b88342bcdb1144f6511b568838383604051808473ffffffffffffffffffffffffffffffffffffffff1673ffffffffffffffffffffffffffffffffffffffff168152602001838152602001828152602001935050505060405180910390a18273ffffffffffffffffffffffffffffffffffffffff166108fc839081150290604051600060405180830381858888f19350505050158015610729573d6000803e3d6000fd5b50505050565b7f90890809c654f11d6e72a28fa60149770a0d11ec6c92319d6ceb2bb0a4ea1a15333483604051808473ffffffffffffffffffffffffffffffffffffffff1673ffffffffffffffffffffffffffffffffffffffff168152602001838152602001828152602001935050505060405180910390a150565b600160009054906101000a900473ffffffffffffffffffffffffffffffffffffffff1673ffffffffffffffffffffffffffffffffffffffff163373ffffffffffffffffffffffffffffffffffffffff1614151561080157600080fd5b7f3925d55ad891dfec4e96ebea870d768b1169d846e9f34bd32518595b9a17866a8282604051808373ffffffffffffffffffffffffffffffffffffffff1673ffffffffffffffffffffffffffffffffffffffff1681526020018281526020019250505060405180910390a161087682826104b5565b505050565b600160009054906101000a900473ffffffffffffffffffffffffffffffffffffffff16815600a165627a7a723058203465d803ee91c26d5709ff95463991995bee666fdf4afb7f320b7425b69380890029",
  "source": "pragma solidity ^0.4.23;\n\n/* Bridge Smart Contract \n* @noot\n* this contract was created to be a generic bridge contract that will emit a Deposit() \n* event upon receiving ether. this Deposit() event will then be picked up by the bridge,\n* which acts as a client. the bridge will then submit a transaction to withdraw ether\n* on the other chain. when this withdraw is completed, a Withdraw() event will be emitted.\n* \n* this contract will be deployed on both sides of the bridge.\n*\n* @todo: ERC20/223 support\n* @todo: testing + security; merkle proofs; valiadators ning off on transactions for PoA \n* chains or private chains/bridges\n*/\n\ncontract Bridge {\n\taddress public owner;\n\t// this is the public key address of the bridge's own keypair, not\n\t// the address of the BridgeSafe or any contract.\n\taddress public bridge;\n\n\tevent ContractCreation(address _owner);\n\n\t// currently, we only specify the receiving address on the other chain\n\t// and the value of the deposit.\n\t// @todo: add `address _toChain` so that the user can specify which\n\t// chain they wish to withdraw on. this makes the bridge \"multi-directional.\n\tevent Deposit(address _receiver, uint _value, uint _toChain); \n\tevent DepositErc20(address _receiver, uint _value); \n\n\t// @todo: similarly to the Deposit event, we eventually wish to add\n\t// a `address _fromChain` argument\n\tevent Withdraw(address _receiver, uint _value, uint _fromChain); \n\tevent WithdrawErc20(address _receiver, uint _value); \n\n\tconstructor() public {\n\t\towner = msg.sender;\n\t\temit ContractCreation(msg.sender);\n\t}\n\n\tmodifier onlyOwner() {\n\t\trequire(msg.sender == owner);\n\t\t_;\n\t}\n\n\tmodifier onlyBridge() {\n\t\trequire(msg.sender == bridge);\n\t\t_;\n\t}\n\n\t/* bridge functions */\n\tfunction () public payable {\n\t\trevert();\n\t\t//emit Deposit(msg.sender, msg.value);\n\t}\n\n\tfunction deposit(uint _toChain) public payable {\n\t\temit Deposit(msg.sender, msg.value, _toChain);\n\t}\n\n\tfunction tokenFallback(address _sender, address _origin, uint _value, bytes _data) public returns (bool ok) {\n\t\temit DepositErc20(_origin, _value);\n\t\treturn true;\n\t}\n\n\tfunction setBridge(address _addr) public onlyOwner {\n\t\tbridge = _addr;\n\t\t//owner = 0x0; // remove owner after bridge is set?\n\t\t// possibly risky. \n\t}\n\n\tfunction withdraw(address _receiver, uint _value, uint _fromChain) public onlyBridge {\n\t\temit Withdraw(_receiver, _value, _fromChain);\n\t\t_receiver.transfer(_value);\n\t}\n\n\tfunction withdrawErc20(address _receiver, uint _value) public onlyBridge {\n\t\temit WithdrawErc20(_receiver, _value);\n\t\ttransfer(_receiver, _value);\n\t}\n\n\t/* erc20 functions */\n\tmapping(address => uint) balance;\n\tuint totalSupply;\n\n\tevent Transfer(address _to, uint _value);\n\n\tfunction transfer(address _to, uint _value) public returns (bool) {\n\t\trequire(balance[msg.sender] >= _value);\n\t\tbalance[msg.sender] -= _value;\n\t\tbalance[_to] += _value;\n\t\temit Transfer(_to, _value);\n\t\treturn true;\n\t}\n}\n",
  "sourcePath": "/home/elizabeth/go/src/github.com/noot/multi_directional_bridge/truffle/contracts/Bridge.sol",
  "compiler": {
    "name": "solc",
    "version": "0.4.24+commit.e67f0147.Emscripten.clang"
  },
  "schemaVersion": "2.0.0",
  "updatedAt": "2018-07-26T18:44:47.990Z"
}