{
  "contractName": "Bridge",
  "abi": [
    {
      "inputs": [],
      "payable": false,
      "stateMutability": "nonpayable",
      "type": "constructor"
    },
    {
      "anonymous": false,
      "inputs": [
        {
          "indexed": false,
          "name": "_owner",
          "type": "address"
        }
      ],
      "name": "ContractCreation",
      "type": "event"
    },
    {
      "anonymous": false,
      "inputs": [
        {
          "indexed": false,
          "name": "_to",
          "type": "address"
        },
        {
          "indexed": false,
          "name": "_value",
          "type": "uint256"
        }
      ],
      "name": "Transfer",
      "type": "event"
    },
    {
      "constant": false,
      "inputs": [
        {
          "name": "_to",
          "type": "address"
        },
        {
          "name": "_value",
          "type": "uint256"
        }
      ],
      "name": "transfer",
      "outputs": [
        {
          "name": "",
          "type": "bool"
        }
      ],
      "payable": false,
      "stateMutability": "nonpayable",
      "type": "function"
    }
  ],
  "bytecode": "0x608060405234801561001057600080fd5b507f4db17dd5e4732fb6da34a148104a592783ca119a1e7bb8829eba6cbadef0b51133604051808273ffffffffffffffffffffffffffffffffffffffff1673ffffffffffffffffffffffffffffffffffffffff16815260200191505060405180910390a161014e806100836000396000f300608060405260043610610041576000357c0100000000000000000000000000000000000000000000000000000000900463ffffffff168063a9059cbb14610046575b600080fd5b34801561005257600080fd5b50610091600480360381019080803573ffffffffffffffffffffffffffffffffffffffff169060200190929190803590602001909291905050506100ab565b604051808215151515815260200191505060405180910390f35b60007f69ca02dd4edd7bf0a4abb9ed3b7af3f14778db5d61921c7dc7cd545266326de28383604051808373ffffffffffffffffffffffffffffffffffffffff1673ffffffffffffffffffffffffffffffffffffffff1681526020018281526020019250505060405180910390a160019050929150505600a165627a7a72305820dbddda7e34fe82f8e6d6708f28baa01e2812b49e2ed9e258089462cbbf7758600029",
  "source": "pragma solidity ^0.4.23;\n\ncontract Bridge {\n\tevent ContractCreation(address _owner);\n\tevent Transfer(address _to, uint _value);\n\t\n\tconstructor() {\n\t\temit ContractCreation(msg.sender);\n\t}\n\n\tfunction transfer(address _to, uint _value) public returns (bool) {\n\t\temit Transfer(_to, _value);\n\t\treturn true;\n\t}\n}\n",
  "sourcePath": "/home/elizabeth/go/src/github.com/noot/multi_directional_bridge/truffle/contracts/Bridge.sol",
  "compiler": {
    "name": "solc",
    "version": "0.4.24+commit.e67f0147.Emscripten.clang"
  },
  "schemaVersion": "2.0.0",
  "updatedAt": "2018-07-14T01:30:15.245Z"
}