{
  "contractName": "Bridge",
  "abi": [
    {
      "constant": true,
      "inputs": [],
      "name": "bridge",
      "outputs": [
        {
          "name": "",
          "type": "address"
        }
      ],
      "payable": false,
      "stateMutability": "view",
      "type": "function"
    },
    {
      "inputs": [],
      "payable": false,
      "stateMutability": "nonpayable",
      "type": "constructor"
    },
    {
      "payable": true,
      "stateMutability": "payable",
      "type": "fallback"
    },
    {
      "anonymous": false,
      "inputs": [
        {
          "indexed": false,
          "name": "_owner",
          "type": "address"
        }
      ],
      "name": "ContractCreation",
      "type": "event"
    },
    {
      "anonymous": false,
      "inputs": [
        {
          "indexed": false,
          "name": "_receiver",
          "type": "address"
        },
        {
          "indexed": false,
          "name": "_value",
          "type": "uint256"
        }
      ],
      "name": "Deposit",
      "type": "event"
    },
    {
      "anonymous": false,
      "inputs": [
        {
          "indexed": false,
          "name": "_receiver",
          "type": "address"
        },
        {
          "indexed": false,
          "name": "_value",
          "type": "uint256"
        }
      ],
      "name": "DepositErc20",
      "type": "event"
    },
    {
      "anonymous": false,
      "inputs": [
        {
          "indexed": false,
          "name": "_receiver",
          "type": "address"
        },
        {
          "indexed": false,
          "name": "_value",
          "type": "uint256"
        }
      ],
      "name": "Withdraw",
      "type": "event"
    },
    {
      "anonymous": false,
      "inputs": [
        {
          "indexed": false,
          "name": "_receiver",
          "type": "address"
        },
        {
          "indexed": false,
          "name": "_value",
          "type": "uint256"
        }
      ],
      "name": "WithdrawErc20",
      "type": "event"
    },
    {
      "anonymous": false,
      "inputs": [
        {
          "indexed": false,
          "name": "_to",
          "type": "address"
        },
        {
          "indexed": false,
          "name": "_value",
          "type": "uint256"
        }
      ],
      "name": "Transfer",
      "type": "event"
    },
    {
      "constant": false,
      "inputs": [
        {
          "name": "_sender",
          "type": "address"
        },
        {
          "name": "_origin",
          "type": "address"
        },
        {
          "name": "_value",
          "type": "uint256"
        },
        {
          "name": "_data",
          "type": "bytes"
        }
      ],
      "name": "tokenFallback",
      "outputs": [
        {
          "name": "ok",
          "type": "bool"
        }
      ],
      "payable": false,
      "stateMutability": "nonpayable",
      "type": "function"
    },
    {
      "constant": false,
      "inputs": [
        {
          "name": "_addr",
          "type": "address"
        }
      ],
      "name": "setBridge",
      "outputs": [],
      "payable": false,
      "stateMutability": "nonpayable",
      "type": "function"
    },
    {
      "constant": false,
      "inputs": [
        {
          "name": "_receiver",
          "type": "address"
        },
        {
          "name": "_value",
          "type": "uint256"
        }
      ],
      "name": "withdraw",
      "outputs": [],
      "payable": false,
      "stateMutability": "nonpayable",
      "type": "function"
    },
    {
      "constant": false,
      "inputs": [
        {
          "name": "_receiver",
          "type": "address"
        },
        {
          "name": "_value",
          "type": "uint256"
        }
      ],
      "name": "withdrawErc20",
      "outputs": [],
      "payable": false,
      "stateMutability": "nonpayable",
      "type": "function"
    },
    {
      "constant": false,
      "inputs": [
        {
          "name": "_to",
          "type": "address"
        },
        {
          "name": "_value",
          "type": "uint256"
        }
      ],
      "name": "transfer",
      "outputs": [
        {
          "name": "",
          "type": "bool"
        }
      ],
      "payable": false,
      "stateMutability": "nonpayable",
      "type": "function"
    }
  ],
  "bytecode": "0x608060405234801561001057600080fd5b50336000806101000a81548173ffffffffffffffffffffffffffffffffffffffff021916908373ffffffffffffffffffffffffffffffffffffffff1602179055507f4db17dd5e4732fb6da34a148104a592783ca119a1e7bb8829eba6cbadef0b51133604051808273ffffffffffffffffffffffffffffffffffffffff1673ffffffffffffffffffffffffffffffffffffffff16815260200191505060405180910390a16107fa806100c36000396000f300608060405260043610610078576000357c0100000000000000000000000000000000000000000000000000000000900463ffffffff1680634c123019146100e55780638dd14802146101b0578063a9059cbb146101f3578063bd1f4b5214610258578063e78cea92146102a5578063f3fef3a3146102fc575b7fe1fffcc4923d04b559f4d29a8bfc6cda04eb5b0d3c460751c2402c5c5cc9109c3334604051808373ffffffffffffffffffffffffffffffffffffffff1673ffffffffffffffffffffffffffffffffffffffff1681526020018281526020019250505060405180910390a1005b3480156100f157600080fd5b50610196600480360381019080803573ffffffffffffffffffffffffffffffffffffffff169060200190929190803573ffffffffffffffffffffffffffffffffffffffff16906020019092919080359060200190929190803590602001908201803590602001908080601f0160208091040260200160405190810160405280939291908181526020018383808284378201915050505050509192919290505050610349565b604051808215151515815260200191505060405180910390f35b3480156101bc57600080fd5b506101f1600480360381019080803573ffffffffffffffffffffffffffffffffffffffff1690602001909291905050506103c2565b005b3480156101ff57600080fd5b5061023e600480360381019080803573ffffffffffffffffffffffffffffffffffffffff16906020019092919080359060200190929190505050610461565b604051808215151515815260200191505060405180910390f35b34801561026457600080fd5b506102a3600480360381019080803573ffffffffffffffffffffffffffffffffffffffff169060200190929190803590602001909291905050506105c0565b005b3480156102b157600080fd5b506102ba610696565b604051808273ffffffffffffffffffffffffffffffffffffffff1673ffffffffffffffffffffffffffffffffffffffff16815260200191505060405180910390f35b34801561030857600080fd5b50610347600480360381019080803573ffffffffffffffffffffffffffffffffffffffff169060200190929190803590602001909291905050506106bc565b005b60007f7339d5d5492cc75a947030d248f62fb9da2da3280337ab2b47b28d877b3ef80f8484604051808373ffffffffffffffffffffffffffffffffffffffff1673ffffffffffffffffffffffffffffffffffffffff1681526020018281526020019250505060405180910390a160019050949350505050565b6000809054906101000a900473ffffffffffffffffffffffffffffffffffffffff1673ffffffffffffffffffffffffffffffffffffffff163373ffffffffffffffffffffffffffffffffffffffff1614151561041d57600080fd5b80600160006101000a81548173ffffffffffffffffffffffffffffffffffffffff021916908373ffffffffffffffffffffffffffffffffffffffff16021790555050565b600081600260003373ffffffffffffffffffffffffffffffffffffffff1673ffffffffffffffffffffffffffffffffffffffff16815260200190815260200160002054101515156104b157600080fd5b81600260003373ffffffffffffffffffffffffffffffffffffffff1673ffffffffffffffffffffffffffffffffffffffff1681526020019081526020016000206000828254039250508190555081600260008573ffffffffffffffffffffffffffffffffffffffff1673ffffffffffffffffffffffffffffffffffffffff168152602001908152602001600020600082825401925050819055507f69ca02dd4edd7bf0a4abb9ed3b7af3f14778db5d61921c7dc7cd545266326de28383604051808373ffffffffffffffffffffffffffffffffffffffff1673ffffffffffffffffffffffffffffffffffffffff1681526020018281526020019250505060405180910390a16001905092915050565b600160009054906101000a900473ffffffffffffffffffffffffffffffffffffffff1673ffffffffffffffffffffffffffffffffffffffff163373ffffffffffffffffffffffffffffffffffffffff1614151561061c57600080fd5b7f3925d55ad891dfec4e96ebea870d768b1169d846e9f34bd32518595b9a17866a8282604051808373ffffffffffffffffffffffffffffffffffffffff1673ffffffffffffffffffffffffffffffffffffffff1681526020018281526020019250505060405180910390a16106918282610461565b505050565b600160009054906101000a900473ffffffffffffffffffffffffffffffffffffffff1681565b600160009054906101000a900473ffffffffffffffffffffffffffffffffffffffff1673ffffffffffffffffffffffffffffffffffffffff163373ffffffffffffffffffffffffffffffffffffffff1614151561071857600080fd5b7f884edad9ce6fa2440d8a54cc123490eb96d2768479d49ff9c7366125a94243648282604051808373ffffffffffffffffffffffffffffffffffffffff1673ffffffffffffffffffffffffffffffffffffffff1681526020018281526020019250505060405180910390a18173ffffffffffffffffffffffffffffffffffffffff166108fc829081150290604051600060405180830381858888f193505050501580156107c9573d6000803e3d6000fd5b5050505600a165627a7a723058208e15ab503f469f10a52b42c7d350cfa428aeb25050662b70d5050069a3a3ffff0029",
  "source": "pragma solidity ^0.4.23;\n\n/* Bridge Smart Contract \n* @noot\n* this contract was created to be a generic bridge contract that will emit a Deposit() \n* event upon receiving ether. this Deposit() event will then be picked up by the bridge,\n* which acts as a client. the bridge will then submit a transaction to withdraw ether\n* on the other chain. when this withdraw is completed, a Withdraw() event will be emitted.\n* \n* this contract will be deployed on both sides of the bridge.\n*\n* @todo: ERC20/223 support\n* @todo: testing + security; merkle proofs; valiadators ning off on transactions for PoA \n* chains or private chains/bridges\n*/\n\ncontract Bridge {\n\taddress owner;\n\t// this is the public key address of the bridge's own keypair, not\n\t// the address of the BridgeSafe or any contract.\n\taddress public bridge;\n\n\tevent ContractCreation(address _owner);\n\n\t// currently, we only specify the receiving address on the other chain\n\t// and the value of the deposit.\n\t// @todo: add `address _toChain` so that the user can specify which\n\t// chain they wish to withdraw on. this makes the bridge \"multi-directional.\n\tevent Deposit(address _receiver, uint _value); \n\tevent DepositErc20(address _receiver, uint _value); \n\n\t// @todo: similarly to the Deposit event, we eventually wish to add\n\t// a `address _fromChain` argument\n\tevent Withdraw(address _receiver, uint _value); \n\tevent WithdrawErc20(address _receiver, uint _value); \n\n\tconstructor() public {\n\t\towner = msg.sender;\n\t\temit ContractCreation(msg.sender);\n\t}\n\n\tmodifier onlyOwner() {\n\t\trequire(msg.sender == owner);\n\t\t_;\n\t}\n\n\tmodifier onlyBridge() {\n\t\trequire(msg.sender == bridge);\n\t\t_;\n\t}\n\n\t/* bridge functions */\n\tfunction () public payable {\n\t\temit Deposit(msg.sender, msg.value);\n\t}\n\n\tfunction tokenFallback(address _sender, address _origin, uint _value, bytes _data) public returns (bool ok) {\n\t\temit DepositErc20(_origin, _value);\n\t\treturn true;\n\t}\n\n\tfunction setBridge(address _addr) public onlyOwner {\n\t\tbridge = _addr;\n\t\t//owner = 0x0; // remove owner after bridge is set?\n\t\t// possibly risky \n\n\t}\n\n\tfunction withdraw(address _receiver, uint _value) public onlyBridge {\n\t\temit Withdraw(_receiver, _value);\n\t\t_receiver.transfer(_value);\n\t}\n\n\tfunction withdrawErc20(address _receiver, uint _value) public onlyBridge {\n\t\temit WithdrawErc20(_receiver, _value);\n\t\ttransfer(_receiver, _value);\n\t}\n\n\t/* erc20 functions */\n\tmapping(address => uint) balance;\n\tuint totalSupply;\n\n\tevent Transfer(address _to, uint _value);\n\n\tfunction transfer(address _to, uint _value) public returns (bool) {\n\t\trequire(balance[msg.sender] >= _value);\n\t\tbalance[msg.sender] -= _value;\n\t\tbalance[_to] += _value;\n\t\temit Transfer(_to, _value);\n\t\treturn true;\n\t}\n}\n",
  "sourcePath": "/home/elizabeth/go/src/github.com/noot/multi_directional_bridge/truffle/contracts/Bridge.sol",
  "compiler": {
    "name": "solc",
    "version": "0.4.24+commit.e67f0147.Emscripten.clang"
  },
  "schemaVersion": "2.0.0",
  "updatedAt": "2018-07-17T20:40:05.716Z"
}