{
  "contractName": "Plasma",
  "abi": [
    {
      "inputs": [],
      "payable": false,
      "stateMutability": "nonpayable",
      "type": "constructor"
    },
    {
      "constant": false,
      "inputs": [
        {
          "name": "_blockNum",
          "type": "uint256"
        },
        {
          "name": "_root",
          "type": "bytes32"
        }
      ],
      "name": "submitRoot",
      "outputs": [
        {
          "name": "",
          "type": "bool"
        }
      ],
      "payable": false,
      "stateMutability": "nonpayable",
      "type": "function"
    }
  ],
  "bytecode": "0x608060405234801561001057600080fd5b5033600160006101000a81548173ffffffffffffffffffffffffffffffffffffffff021916908373ffffffffffffffffffffffffffffffffffffffff160217905550610148806100616000396000f300608060405260043610610041576000357c0100000000000000000000000000000000000000000000000000000000900463ffffffff16806357d759f014610046575b600080fd5b34801561005257600080fd5b5061007f600480360381019080803590602001909291908035600019169060200190929190505050610099565b604051808215151515815260200191505060405180910390f35b6000600160009054906101000a900473ffffffffffffffffffffffffffffffffffffffff1673ffffffffffffffffffffffffffffffffffffffff163373ffffffffffffffffffffffffffffffffffffffff161415156100f757600080fd5b81600080858152602001908152602001600020816000191690555060019050929150505600a165627a7a723058204a46666f9354a0fd5aa73a9eb32f9c2015528329af0e8a4615477271f0076a330029",
  "source": "pragma solidity ^0.4.23;\n\n/* deploy on mainnet \n* this contract will regularly be relayed block header roots from the plasma chain \n*/\n\ncontract Plasma {\n\tmapping (uint256 => bytes32) roots; // mapping of block numbers to block roots\n\n\taddress owner;\n\n\tconstructor() {\n\t\towner = msg.sender;\n\t}\n\n\tmodifier onlyOwner() {\n\t\trequire (msg.sender == owner);\n\t\t_;\n\t}\n\t\n\tfunction submitRoot(uint256 _blockNum, bytes32 _root) public onlyOwner returns (bool) {\n\t\troots[_blockNum] = _root;\n\t\treturn true;\n\t}\n}",
  "sourcePath": "/home/elizabeth/go/src/github.com/noot/multi_directional_bridge/truffle/contracts/Plasma.sol",
  "compiler": {
    "name": "solc",
    "version": "0.4.24+commit.e67f0147.Emscripten.clang"
  },
  "schemaVersion": "2.0.0",
  "updatedAt": "2018-08-07T21:13:56.210Z"
}